:08000300E4F58012029980FB74
:1007C80011353F065B4F666D7D077F6F777C395E1D
:0307D80079710034
:0605A9008B2B8A2C892D2A
:1005AF00E4F52EED14F52FF52EE52EC39408507BB0
:1005BF00E52EB40800504D9005CDF828287302059C
:1005CF00E50205E90205ED0205F10205F50205FD5B
:1005DF0002060502060DD2A4800ED2A48012D2A468
:1005EF008016D2A4801AC2A4D2A3D2A28016C2A40B
:1005FF00D2A3C2A2800EC2A4C2A3D2A28006C2A45A
:10060F00C2A3C2A2C3E52E952FFFE49400AB2BAA81
:10061F002CA92D8F82F5831201D3F5807F647E0084
:0B062F0012088BE4F580052E0205B8D0
:01063A00229D
:10086900C2B77F4B7E0012088BD2B77F027E00028F
:02087900088BEA
:10074200E4F53230B712E532C39414500B05327F10
:10075200017E0012088B80EBE532C3941440037FC4
:100762000122E4F53220B712E532C39414500B058E
:10077200327F017E0012088B80EBE532C394144075
:06078200037F01227F004D
:01078800224E
:10081600E4F534C2B70000D2B7000030B70575342E
:0F082600018003E4F5347F057E0012088BAF34A8
:0108350022A0
:1007F000E4F532F533FFF532120816EFC433333324
:100800005480FEE533C3134EF5330532E532C3940D
:050810000840E5AF33D4
:0108150022C0
:020789008F32AD
:10078B00E4F533F534F533E5325401F534E532C392
:10079B0013F532E534600FC2B70000D2B77F067E87
:1007AB000012088B800DC2B77F067E0012088BD219
:0C07BB00B700000533E533C3940840CBC1
:0107C700220F
:10087B001208691207427FCC1207897F440207894D
:07089600120869120742225B
:1006C700E4FFF52FF530F53112087B1208691207A0
:1006D700427FCC1207897FBE1207891207F08F2F3E
:1006E7001207F0EFFE7C00E4252FF531EC3EF530E4
:1006F70054F8FEEEB4F821E531F4FFE530F4FEEFEF
:100707002401F531E43EF530FCAD31E4120119E482
:10071700FBFA798078BD800FAC30AD31E412011956
:10072700E4FBFA7980783D12000E8F2E8E2D8D2CEA
:0A0737008C2BAF2EAE2DAD2CAC2B99
:010741002295
:1007DB00020B003D020D0001021D0000021500007E
:0407EB000208000000
:100854005389F0438901758CFC758A66D28CC28DEC
:05086400D2AFD2A92271
:03000B000204D913
:1004D900C0E0C0F0C0D075D000C000C004C005C0E5
:0304E90006C00743
:1004EC00758CFC758A660509E50970020508D394BC
:1004FC00E8E50894034058750800750900E50C15EB
:10050C000C7002150BAE0BAF0C7C007D0A120200B6
:10051C008C138D14AE0BAF0C7C007D0A1202007C88
:10052C00007D0A1202008C198D1AAE0BAF0C7C00E8
:10053C007D641202007C007D0A1202008C118D1267
:10054C00AE0BAF0C7C037DE81202008E178F18E502
:10055C000C450B60370510E5107002050FC3951C98
:10056C00E50F951B5004D2908002C290AE0FAF10D5
:10057C007C007D641202008C0F8D10D3E50E940369
:0C058C00E50D94004006750D00750E0191
:10059800D007D006D005D004D000D0D0D0F0D0E01D
:0105A8003220
:0203D8008F1F75
:1003DA00E4F520120896D3E50C9478E50B940040D6
:1003EA0005E4F50BF50C0520E520D394044003E45D
:1003FA00F520E52020E0141206C7E4FBFA792078FC
:10040A004112000E1201528E218F22C3E50B940075
:10041A00402B7523407435250EF8E6F524752540E2
:10042A00E4F526F52774352512F8E6F528743525FE
:10043A001AF8E6F52974352514F8E6F52AE51F6455
:10044A00047050752340853924752540F526F52713
:10045A00AE21AF227C037DE8120255AA04AB057DCA
:10046A00647C00AF03AE0212025574352FF8E6F52C
:10047A00287D647C00AF03AE021202557E007F0A1B
:10048A00CFCDCFCECCCE12025574352FF8E6F52952
:10049A00752A39E51F64046022E50C450B701C754A
:1004AA0023407435250EF8E6F524752540E4F52633
:1004BA00F52775287F75297F752A7F7B007A007951
:0F04CA00237D011205A9E52030E0030203F02293
:1002990075900FE590640F605D7FE87E0312088B0F
:1002A900E590640F605075900FAF90EF24F56010E2
:1002B90024FE601114601324077012E4F50A800DFE
:1002C900750A018008750A028003750A037590F0A2
:1002D900AF90EF2450601124E0601124F0601124E4
:1002E900707013850A0A800E7404800674088002EF
:1002F900740C250AF50AC290120854E50AB40332AF
:10030900751D00751E01E50E6401450D7005F51B8F
:10031900751C14E50E6402450D7005F51B751C1E50
:10032900E50E6403450D7005F51B751C467F01122A
:1003390003D8E50AB4040BE51E451D60057F0212CA
:1003490003D8E50AB4050BE51E451D60057F0312B8
:1003590003D8E50AB406057F041203D8E590B4F082
:100369002AE50AB40325E51645156008050EE50ECC
:100379007002050D751500751601D3E50E9403E598
:100389000D94004006750D00750E01E590B4F01648
:10039900E50AB40411E51E451D600B743C250CF5F6
:1003A9000CE4350BF50BE590B4F010E50AB4050B38
:1003B900E51E451D6005E4F50BF50CE590B4F00E5E
:0F03C900E50AB40609E4F51DF51EF515F5162233
:0B088B00EF1FAC0670011E4C70F6223F
:10083600D3EF9400EE940040147D6E7C00ED1D70A5
:0D084600011CED4C70F7EF1F70E61E80E303
:010853002282
:10000E00EC4D6011E8497017ED33EC3304600DE4EC
:10001E00FCFFFEFD22E933E8330470F80201BE1244
:10002E00018958046009E4CC248150062850090245
:10003E0001C82840030201C5C0E0EB4A7044B980F4
:10004E0006D0E0FB0201B4EF4E701CBD8008EBFF42
:10005E00EAFEE9FD80EBE98DF0A4FEE5F00200F783
:10006E00E9CDF9EAFEEBFFEF89F0A4FCE5F0CE89CD
:10007E00F0A42EFFE435F0CD89F0A42DFEE435F08A
:10008E008067EF4E7005BD80D780C3EF8BF0A4ACB8
:10009E00F0EE8BF0A42CFCE435F0F8EF8AF0A42CF3
:1000AE00E5F038FCE433CB8DF0A42CFCE5F03BF806
:1000BE00EE8AF0A42CFCE5F038F8E433CF89F0A4F6
:1000CE002CFCE5F038CF3400CE89F0A42FFFE5F0FC
:1000DE003EFEE433C98DF0A42EFEE5F039CD8AF054
:1000EE00A42FFFE5F03EFEE43DFD33D0E0FB5007CC
:1000FE000BBB000F0201C8EC2CFCEF33FFEE33FEFE
:06010E00ED33FD0201A02B
:1001140075F020800E75F010800575F0087D007E66
:10012400007F003392D530D50312028BEC3340109C
:10013400EF33FFEE33FEED33FDEC33FCD5F0ED226F
:0E014400E5F0247EA2D513CC92E7CDCEFF22AB
:10015200EDD2E7CD33EC3392D524814006E4FFFEA5
:10016200FDFC22FCE4CFCECDCC24E0501174FF8004
:10017200EDC3CC13CCCD13CDCE13CECF13CF0470A1
:07018200F030D5DE02028B14
:10018900E9D2E7C933E833F892D5EDD2E7CD33ECBC
:0701990033FC5002B2D52235
:1001A000EC30E7100FBF000C0EBE00080DBD0004C0
:1001B0000BEB6014A2D5EB13FCED92E7FD2274FF6C
:1001C000FCFDFEFF22E480F8A2D574FF13FC7D80C5
:0301D000E480EFD9
:0300000002063BBA
:0C063B00787FE4F6D8FD75814502068248
:1001D300BB010CE58229F582E5833AF583E02250E1
:1001E30006E92582F8E622BBFE06E92582F8E2222B
:0D01F300E58229F582E5833AF583E4932245
:10020000BC000BBE0029EF8DF084FFADF022E4CCE2
:10021000F875F008EF2FFFEE33FEEC33FCEE9DECAB
:10022000984005FCEE9DFE0FD5F0E9E4CEFD22EDF1
:10023000F8F5F0EE8420D21CFEADF075F008EF2F3B
:10024000FFED33FD4007985006D5F0F222C398FD2C
:050250000FD5F0EA22C9
:10025500C2D5EC30E709B2D5E4C39DFDE49CFCEEC4
:1002650030E715B2D5E4C39FFFE49EFE120200C33A
:10027500E49DFDE49CFC800312020030D507C3E435
:060285009FFFE49EFE2233
:0E028B00C3E49FFFE49EFEE49DFDE49CFC2284
:10064700020003E493A3F8E493A34003F68001F2C6
:1006570008DFF48029E493A3F85407240CC8C333B4
:10066700C4540F4420C8834004F456800146F6DF83
:10067700E4800B01020408102040809007C8E47E44
:10068700019360BCA3FF543F30E509541FFEE49378
:10069700A360010ECF54C025E060A840B8E493A33F
:1006A700FAE493A3F8E493A3C8C582C8CAC583CA6A
:1006B700F0A3C8C582C8CAC583CADFE9DEE780BE22
:0107EF000009
:00000001FF
